:020000040000FA
:040000000000AE2826
:040004000034003490
:0800080000008B138B1C16286D
:100010004C21831203133008303EF4148520F41071
:1000200037088520D7208B108B1709008312031304
:1000300083120313B60B5F28B70AF4103708852024
:100040008312031338182A28B818312838193F2882
:10005000B8194628831203133008B2000230B800E2
:100060005528831203133008B3000430B8008312FC
:100070000313F41478308520B70A01215528831220
:1000800003133008B4000830B80055288312031356
:100090003008B5001030B80083120313F4143D305B
:1000A0008520B70A0C308520090083120313B001A4
:1000B000F41430308520F41037088520D7208312BF
:1000C00003138B170B118312031381010900F930FD
:1000D000F0000000F00B69280800F1006720F10B28
:1000E0006E280800FA306D20FA306D20FA306D204D
:1000F000FA306D200800F2007220F20B7C28080014
:1001000008156720081167200800F500F0398800FD
:10011000F41888148020F50E7508F0398800F4185A
:1001200088148020080064306D20F030F4003030F6
:100130008800802005306D208020672080200812F4
:100140008020283085200830852001308520063029
:100150008520803085200C3085200800831603130D
:10016000061488018312031301308801932005309F
:10017000B100BA2883120313B10B0D2903307B2081
:10018000C520DD20CD20D720C42883120313F4100E
:1001900001308520803085200800831203138B17DF
:1001A0000B168B1683160313073081000800831289
:1001B00003131E30B6000B15080083120313F4144A
:1001C0004E308520753085206D3085206230852049
:1001D00065308520723085202030852031308520A3
:1001E000F410C030B70085200030B000F414303077
:1001F0008520F410370885200F3085200130B800A5
:10020000080083120313F41087308520F414323071
:100210008520F410370885200800F410013085206F
:1002200080308520F41490306D2057308520653063
:1002300085206C308520633085206F3085206D30BF
:1002400085206530852020308520743085206F30F2
:100250008520F410C0308520F4146D308520753071
:1002600085206C3085207430852069308520703081
:1002700085206C3085206930852063308520613091
:10028000852074308520693085206F3085206E3060
:10029000852001307B20BA2883120313B00A0A306C
:0802A00030020319B00108004F
:02400E00313748
:00000001FF
