:020000040000FA
:0400000000004E2886
:040004000034003490
:080008000900F930F0000000CE
:10001000F00B07280800F1000520F10B0C28080060
:10002000FA300B20FA300B20FA300B20FA300B207C
:100030000800F2001020F20B1A280800081505200D
:10004000081105200800F500F0398800F41888141C
:100050001E200520F50E7508F0398800F418881464
:100060001E200520080064300B20F030F4003030F2
:1000700088001E2005300B201E2005201E2008129F
:100080001E20283023200830232001302320063072
:100090002320803023200C302320080083160313F4
:1000A00006148801831203138B170B168312031394
:1000B0000130880133200430B1005E28831203131D
:1000C000B10B802803301920F41001302320803038
:1000D0002320F4144E302320753023206D3023204C
:1000E00062302320653023207230232020302320EB
:1000F00031302320F410C03023200F3023207F28FC
:10010000F4100130232080302320F41490300B2091
:1001100057302320653023206C3023206330232088
:100120006F3023206D3023206530232020302320A2
:10013000743023206F302320F410C0302320F414B7
:100140006D302320753023206C3023207430232021
:1001500069302320703023206C3023206930232025
:100160006330232061302320743023206930232022
:0E0170006F3023206E302320013019205E28CE
:02400E00313748
:00000001FF
