:020000040000FA
:040000000000BA281A
:040004000034003490
:0800080000008B138B1C1A2869
:1000100083120313381AD1287D2183120313300869
:10002000303EF4149120F41037089120EE208B100C
:100030008B1709008312031383120313B60B6B286B
:10004000B70AF410370891208312031338182E28AA
:10005000B818352838194328B8194A2883120313C9
:100060003008B2000230B800612883120313300850
:10007000B3000430B80083120313F41478309120D5
:10008000B70A18216128831203133008B40008301E
:10009000B8006128831203133008B5001030B8008F
:1000A00083120313F4143D3091202421F4100C30FA
:1000B0009120831203138B1283120313810185296C
:1000C000090083120313B001F41430309120F410AE
:1000D00037089120EE20831203138B170B11831224
:1000E000031381010900F930F0000000F00B7528BE
:1000F0000800F1007320F10B7A280800FA3079200B
:10010000FA307920FA307920FA3079200800F200AC
:100110007E20F20B88280800081573200811732030
:100120000800F500F0398800F41888148C20F50ECA
:100130007508F0398800F41888148C2008006430A1
:100140007920F030F400303088008C2005307920A0
:100150008C2073208C2008128C20283091200830AD
:1001600091200130912006309120803091200C3078
:1001700091200800831603130614880183120313C9
:10018000013088019F200530B100C6288312031377
:10019000B10B3E2903308720DC20F420E420EE2040
:1001A000D02883120313F410013091208030912065
:1001B000F420E420EE20080083120313F410013031
:1001C0009120803091200800831203138B170B16A7
:1001D0008B16831603130730810008008312031364
:1001E0001E30B6000B15080083120313F4144E30B2
:1001F0009120753091206D309120623091206530D2
:100200009120723091202030912031309120F410D3
:10021000C030B70091200030B000F414303091208D
:10022000F410370891200F3091200130B8000800F9
:1002300083120313F41087309120F414323091208C
:10024000F41037089120080083120313F410803053
:100250009120F41452309120653091207330912018
:10026000753091206C309120743091202030912095
:1002700020309120F410C63091200800F410013095
:10028000912080309120F4149030792057309120C3
:10029000653091206C309120633091206F30912037
:1002A0006D30912065309120203091207430912064
:1002B0006F309120F410C0309120F4146D309120F3
:1002C000753091206C3091207430912069309120EC
:1002D000703091206C3091206930912063309120F2
:1002E0006130912074309120693091206F309120DD
:1002F0006E30912001308720C62883120313B00A84
:100300000A3030020319B0010800831203133308C6
:10031000C6003408C700AA21831203134808B90095
:100320004908C0003208C6003408C700AA2148089E
:10033000C0070318C10A4908C10783120313F41444
:100340004108303E91204008303E91203908303E2F
:100350009120602883120313C801C90147080319BB
:10036000B7294608C8070318C90AC70BB2290800ED
:02400E00313748
:00000001FF
