:020000040000FA
:040000000000BD2817
:040004000034003490
:0800080000008B138B1C1A2869
:1000100083120313381AD728882183120313300858
:10002000303EF4149420F41037089420F9208B10FB
:100030008B1709008312031383120313B60B6E2868
:10004000B70AF410370894208312031338182E28A7
:10005000B818352838194328B8194A2883120313C9
:100060003008B2000230B80064288312031330084D
:10007000B3000430B80083120313F41478309420D2
:10008000B70A23216428831203133008B400083010
:10009000B8006428831203133008B5001030B8008C
:1000A00083120313F4143D3094202F21F4100C30EC
:1000B0009420831203138B1283120313810190295E
:1000C000EB29A329CB29090083120313B001F414EF
:1000D00030309420F41037089420F9208312031351
:1000E0008B170B118312031381010900F930F00003
:1000F0000000F00B78280800F1007620F10B7D2835
:100100000800FA307C20FA307C20FA307C20FA306B
:100110007C200800F2008120F20B8B2808000815D3
:100120007620081176200800F500F0398800F418D0
:1001300088148F20F50E7508F0398800F41888149B
:100140008F20080064307C20F030F40030308800CC
:100150008F2005307C208F2076208F2008128F2062
:1001600028309420083094200130942006309420C8
:10017000803094200C30942008008316031306145A
:10018000880187018312031301308801FF30870043
:10019000A2200530B100CC2883120313B10B4929EA
:1001A00003308A20E720FF20EF20F920D62883168D
:1001B0000313870183120313FF308700F41001300B
:1001C000942080309420FF20EF20F9200800831233
:1001D0000313F4100130942080309420080083121F
:1001E00003138B170B168B1683160313073081002E
:1001F0000800831203131E30B6000B15080083128B
:100200000313F4144E309420753094206D309420F4
:1002100062309420653094207230942020309420F5
:1002200031309420F410C030B70094200030B0007A
:10023000F41430309420F410370894200F309420B8
:100240000130B800080083120313F41087309420A3
:10025000F41432309420F4103708942008008312EC
:100260000313F41080309420F4145230942065303D
:10027000942073309420753094206C309420743026
:1002800094202030942020309420F410C630942004
:100290000800F4100130942080309420F414903041
:1002A0007C2057309420653094206C30942063304B
:1002B00094206F3094206D3094206530942020304D
:1002C0009420743094206F309420F410C030942027
:1002D000F4146D309420753094206C309420743078
:1002E000942069309420703094206C3094206930D0
:1002F00094206330942061309420743094206930CD
:1003000094206F3094206E30942001308A20CC28C5
:1003100083120313B00A0A3030020319B001080037
:1003200083160313870183120313320EC5003308AB
:10033000450487000A307C20350887000A307C207D
:10034000FF308700602805307C2083160313870167
:1003500083120313FE3087000A307C2083160313B8
:10036000FF308700831203130708D100070ED20065
:100370000F30D1050F30D2050A307C2083120313D1
:100380000708D0008316031300308700831203137D
:10039000FF3087006228831203135008C100510800
:1003A000C2074208093C031C16225208C30743082F
:1003B000093C031C1A2283120313F4144408303E30
:1003C00094204308303E94204208303E9420410857
:1003D000303E9420632883120313C101C201C3017C
:1003E000C401831203133308C5003408C6001E225B
:1003F000831203134708C2074208093C031C162254
:100400004808C3074308093C031C1A223208C500E8
:100410003408C6001E22831203134708C30743088B
:10042000093C031C1A224808C40761280A30C2028A
:10043000C30A08000A30C302C40F08008312031362
:10044000C701C80146080319362A4508C7074708E7
:10045000093C031C2E2AC60B252A362A83120313B5
:0E0460000A30C702C80AC60B252A362A080031
:02400E00313748
:00000001FF
