:020000040000FA
:040000000000B9281B
:040004000034003490
:0800080000008B138B1C1A2869
:1000100083120313381AD02879218312031330086E
:10002000303EF4149020F41037089020ED208B100F
:100030008B1709008312031383120313B60B6A286C
:10004000B70AF410370890208312031338182E28AB
:10005000B818352838194328B8194A2883120313C9
:100060003008B2000230B800602883120313300851
:10007000B3000430B80083120313F41478309020D6
:10008000B70A17216028831203133008B400083020
:10009000B8006028831203133008B5001030B80090
:1000A00083120313F4143D3090202321F4100C30FC
:1000B0009020831203138B12831203138101090012
:1000C00083120313B001F41430309020F410370879
:1000D0009020ED20831203138B170B11831203134F
:1000E00081010900F930F0000000F00B74280800CD
:1000F000F1007220F10B79280800FA307820FA30EC
:100100007820FA307820FA3078200800F2007D203C
:10011000F20B8728080008157220081172200800C9
:10012000F500F0398800F41888148B20F50E750856
:10013000F0398800F41888148B2008006430782087
:10014000F030F400303088008B20053078208B2090
:1001500072208B2008128B202830902008309020AD
:100160000130902006309020803090200C3090207C
:100170000800831603130614880183120313013049
:1001800088019E200530B100C52883120313B10BEE
:100190003A2903308620DB20F320E320ED20CF280E
:1001A00083120313F4100130902080309020F3204C
:1001B000E320ED20080083120313F4100130902097
:1001C000803090200800831203138B170B168B16B8
:1001D00083160313073081000800831203131E30B7
:1001E000B6000B15080083120313F4144E30902050
:1001F000753090206D3090206230902065309020D6
:10020000723090202030902031309020F410C03097
:10021000B70090200030B000F41430309020F4107B
:10022000370890200F3090200130B800080083126A
:100230000313F41087309020F41432309020F4101F
:1002400037089020080083120313F41080309020A8
:10025000F414523090206530902073309020753027
:1002600090206C30902074309020203090202030EE
:1002700090200800F4100130902080309020F41479
:100280009030782057309020653090206C3090204E
:10029000633090206F3090206D309020653090203A
:1002A00020309020743090206F309020F410C030B7
:1002B0009020F4146D309020753090206C30902098
:1002C0007430902069309020703090206C309020F5
:1002D00069309020633090206130902074309020FD
:1002E000693090206F3090206E3090200130862051
:1002F000C52883120313B00A0A3030020319B00173
:020300000800F3
:02400E00313748
:00000001FF
