:020000040000FA
:040000000000502884
:040004000034003490
:08000800000006288312031317
:100010000900F930F0000000F00B0B280800F10097
:100020000920F10B10280800FA300F20FA300F20B9
:10003000FA300F20FA300F200800F2001420F20BE3
:100040001E28080008150920081109200800F500DD
:10005000F0398800F41888142220F50E7508F0395C
:100060008800F41888142220080064300F20F03033
:10007000F40030308800222005300F202220092093
:100080002220081222202830272008302720013083
:10009000272006302720803027200C30272008001A
:1000A0008316031300308800831203133520831254
:1000B0000313F41001302720803027208316031308
:1000C0000030870083120313FF3087008316031369
:1000D000FF30870083120313870603196C28070873
:1000E000FE3A031998287428831203130708F0397D
:1000F000A700A70E07080F39A600F4142708303E02
:1001000027202608303E27200A300F2083120313B1
:100110000708A800AC2883120313F4143030320708
:1001200027203030310727203030300727205E2845
:10013000831603130030870083120313320E310439
:1001400087000A300F208312031330088700203005
:100150000F20831203135E28B001B101B201831294
:1001600003132808B6002608B500D4208312031311
:100170003308B0003408B100831203132808B50017
:100180002708B600D420831203133308B1073408BC
:10019000B2073108093C031CCE288B2883120313B5
:1001A0000A30B102B20A8B2883120313B301B401DF
:1001B00036080319EC283508B3073308093C031C3B
:1001C000E428B60BDB28EC28831203130A30B302B1
:0A01D000B40AB60BDB28EC28080087
:02400E00313748
:00000001FF
