:020000040000FA
:040000000000502884
:040004000034003490
:08000800000006288312031317
:100010000900F930F0000000F00B0B280800F10097
:100020000920F10B10280800FA300F20FA300F20B9
:10003000FA300F20FA300F200800F2001420F20BE3
:100040001E28080008150920081109200800F500DD
:10005000F0398800F41888142220F50E7508F0395C
:100060008800F41888142220080064300F20F03033
:10007000F40030308800222005300F202220092093
:100080002220081222202830272008302720013083
:10009000272006302720803027200C30272008001A
:1000A000831603130030870083120313FF30870089
:1000B00083160313FF308700831203138706031987
:1000C0005E280708FE3A0319832866288312031363
:1000D0000708F039A700A70E07080F39A6000A3055
:1000E0000F20831203130708A80097288312031315
:1000F000F4143030320727203030310727203030D9
:1001000030072720502883160313003087008312FE
:100110000313320E310487000A300F2083120313B9
:100120003008870020300F20831203135028B001BD
:10013000B101B201831203132808B6002608B500E6
:10014000BF20831203133308B0003408B1008312B8
:1001500003132808B5002708B600BF208312031335
:100160003308B1073408B2073108093C031CB92829
:100170007628831203130A30B102B20A762883125A
:100180000313B301B40136080319D7283508B307A0
:100190003308093C031CCF28B60BC628D728831286
:1001A00003130A30B302B40AB60BC628D7280800D6
:02400E00313748
:00000001FF
